{
  "transactions": [
    {
      "hash": "0xebb421021b733dab3f1d96e5d86feea7f1572f634834859e8d61995abc59f669",
      "transactionType": "CALL",
      "contractName": null,
      "contractAddress": "0xd83fbc6409a6dcaf1117c2ce76559547e039545b",
      "function": "applyChainUpdates((uint64,bool,bytes,bytes,(bool,uint128,uint128),(bool,uint128,uint128))[])",
      "arguments": [
        "[(6898391096552792247, true, 0x0000000000000000000000007b50772f157663783ab4ae386a921379d34828f3, 0x0000000000000000000000004476ababb36106b26829abb306814820ebc6678b, (false, 0, 0), (false, 0, 0))]"
      ],
      "transaction": {
        "from": "0x2cb4f72907b1ec202a2f751da0286aa9ee2e3b33",
        "to": "0xd83fbc6409a6dcaf1117c2ce76559547e039545b",
        "gas": "0x553a3",
        "value": "0x0",
        "input": "0xdb6327dc0000000000000000000000000000000000000000000000000000000000000020000000000000000000000000000000000000000000000000000000000000000100000000000000000000000000000000000000000000000000000000000000200000000000000000000000000000000000000000000000005fbc02272fbf20b700000000000000000000000000000000000000000000000000000000000000010000000000000000000000000000000000000000000000000000000000000140000000000000000000000000000000000000000000000000000000000000018000000000000000000000000000000000000000000000000000000000000000000000000000000000000000000000000000000000000000000000000000000000000000000000000000000000000000000000000000000000000000000000000000000000000000000000000000000000000000000000000000000000000000000000000000000000000000000000000000000000000000000000000000000000000000000000000000000000000000000000000000000000000000000000000000000000000000000000000000000000000000000000000000000000000000200000000000000000000000007b50772f157663783ab4ae386a921379d34828f300000000000000000000000000000000000000000000000000000000000000200000000000000000000000004476ababb36106b26829abb306814820ebc6678b",
        "nonce": "0xc1",
        "chainId": "0xaa36a7"
      },
      "additionalContracts": [],
      "isFixedGasLimit": false
    }
  ],
  "receipts": [
    {
      "status": "0x1",
      "cumulativeGasUsed": "0x4b025d",
      "logs": [
        {
          "address": "0xd83fbc6409a6dcaf1117c2ce76559547e039545b",
          "topics": [
            "0x8d340f17e19058004c20453540862a9c62778504476f6756755cb33bcd6c38c2"
          ],
          "data": "0x0000000000000000000000000000000000000000000000005fbc02272fbf20b7000000000000000000000000000000000000000000000000000000000000010000000000000000000000000000000000000000000000000000000000000000000000000000000000000000000000000000000000000000000000000000000000000000000000000000000000000000000000000000000000000000000000000000000000000000000000000000000000000000000000000000000000000000000000000000000000000000000000000000000000000000000000000000000000000000000000000000000000000000000000000000000000000000000000000000000000000000000000000000000000000000000000000000000000000000200000000000000000000000004476ababb36106b26829abb306814820ebc6678b",
          "blockHash": "0x69294c5f42cc9e057dfeabf4e366035aac7c38d91a919abb552f71536805c43a",
          "blockNumber": "0x8febba",
          "blockTimestamp": "0x68f26008",
          "transactionHash": "0xebb421021b733dab3f1d96e5d86feea7f1572f634834859e8d61995abc59f669",
          "transactionIndex": "0x3b",
          "logIndex": "0x4c",
          "removed": false
        }
      ],
      "logsBloom": "0x00000000000000400000010000000000000000000000000000000000000000000000000000000000000000000000000000000000000000000004000000000000000000000000000000000000000000000000000000000000000000000000000000000000000000000000000000000000000000000000000000000000000000000000000000000000000000000000000000000000000000000000000000000000000000004000000000000000000000000000000000000000000000000000000000000000000000800000000000000000000000000000000000000000000000000000000000000000000000000000000000000000000000000100000000000000",
      "type": "0x2",
      "transactionHash": "0xebb421021b733dab3f1d96e5d86feea7f1572f634834859e8d61995abc59f669",
      "transactionIndex": "0x3b",
      "blockHash": "0x69294c5f42cc9e057dfeabf4e366035aac7c38d91a919abb552f71536805c43a",
      "blockNumber": "0x8febba",
      "gasUsed": "0x3db40",
      "effectiveGasPrice": "0xf424a",
      "from": "0x2cb4f72907b1ec202a2f751da0286aa9ee2e3b33",
      "to": "0xd83fbc6409a6dcaf1117c2ce76559547e039545b",
      "contractAddress": null
    }
  ],
  "libraries": [],
  "pending": [],
  "returns": {},
  "timestamp": 1760714762,
  "chain": 11155111,
  "commit": "958705f"
}