{
  "transactions": [
    {
      "hash": "0xdcb37cc3346500b33715c9e0bcea168996b11519009b70207375a51f94f840b0",
      "transactionType": "CALL",
      "contractName": null,
      "contractAddress": "0xb8c311608af21b80b087cb77439e537143a5bb36",
      "function": "applyChainUpdates((uint64,bool,bytes,bytes,(bool,uint128,uint128),(bool,uint128,uint128))[])",
      "arguments": [
        "[(6898391096552792247, true, 0x0000000000000000000000009d747a9bd5dba9fa48d2c4fd5e4684ecd6e09230, 0x000000000000000000000000efa7ed391b1a78d6ec809be4db5b211b0bed28c9, (false, 0, 0), (false, 0, 0))]"
      ],
      "transaction": {
        "from": "0x2cb4f72907b1ec202a2f751da0286aa9ee2e3b33",
        "to": "0xb8c311608af21b80b087cb77439e537143a5bb36",
        "gas": "0x553a3",
        "value": "0x0",
        "input": "0xdb6327dc0000000000000000000000000000000000000000000000000000000000000020000000000000000000000000000000000000000000000000000000000000000100000000000000000000000000000000000000000000000000000000000000200000000000000000000000000000000000000000000000005fbc02272fbf20b700000000000000000000000000000000000000000000000000000000000000010000000000000000000000000000000000000000000000000000000000000140000000000000000000000000000000000000000000000000000000000000018000000000000000000000000000000000000000000000000000000000000000000000000000000000000000000000000000000000000000000000000000000000000000000000000000000000000000000000000000000000000000000000000000000000000000000000000000000000000000000000000000000000000000000000000000000000000000000000000000000000000000000000000000000000000000000000000000000000000000000000000000000000000000000000000000000000000000000000000000000000000000000000000000000000000000200000000000000000000000009d747a9bd5dba9fa48d2c4fd5e4684ecd6e092300000000000000000000000000000000000000000000000000000000000000020000000000000000000000000efa7ed391b1a78d6ec809be4db5b211b0bed28c9",
        "nonce": "0xb4",
        "chainId": "0xaa36a7"
      },
      "additionalContracts": [],
      "isFixedGasLimit": false
    }
  ],
  "receipts": [
    {
      "status": "0x1",
      "cumulativeGasUsed": "0x994b3c",
      "logs": [
        {
          "address": "0xb8c311608af21b80b087cb77439e537143a5bb36",
          "topics": [
            "0x8d340f17e19058004c20453540862a9c62778504476f6756755cb33bcd6c38c2"
          ],
          "data": "0x0000000000000000000000000000000000000000000000005fbc02272fbf20b700000000000000000000000000000000000000000000000000000000000001000000000000000000000000000000000000000000000000000000000000000000000000000000000000000000000000000000000000000000000000000000000000000000000000000000000000000000000000000000000000000000000000000000000000000000000000000000000000000000000000000000000000000000000000000000000000000000000000000000000000000000000000000000000000000000000000000000000000000000000000000000000000000000000000000000000000000000000000000000000000000000000000000000000000000020000000000000000000000000efa7ed391b1a78d6ec809be4db5b211b0bed28c9",
          "blockHash": "0xd25957b36047b5fc624678474cf6372e7b0096c79f2ce75f4640f8227b2c5c59",
          "blockNumber": "0x8feba7",
          "blockTimestamp": "0x68f25f24",
          "transactionHash": "0xdcb37cc3346500b33715c9e0bcea168996b11519009b70207375a51f94f840b0",
          "transactionIndex": "0x35",
          "logIndex": "0x42",
          "removed": false
        }
      ],
      "logsBloom": "0x00000000000000400000000000000000000000000000000000000000000000000000000000000000000000000000000000000000000000000004000000000000000000000000000000000000000000000000000000000000000000000000000002000000000000000000000000000000000000000000000000000000000000000000000000000000000000000000000000000000000000000000000000000000000000000000000000000000000000000000000000000000000800000000000000000000000000000000000000000000000000000000000000000000000000000000000000080000000000000000000000000000000000000100000000000000",
      "type": "0x2",
      "transactionHash": "0xdcb37cc3346500b33715c9e0bcea168996b11519009b70207375a51f94f840b0",
      "transactionIndex": "0x35",
      "blockHash": "0xd25957b36047b5fc624678474cf6372e7b0096c79f2ce75f4640f8227b2c5c59",
      "blockNumber": "0x8feba7",
      "gasUsed": "0x3db40",
      "effectiveGasPrice": "0xf424b",
      "from": "0x2cb4f72907b1ec202a2f751da0286aa9ee2e3b33",
      "to": "0xb8c311608af21b80b087cb77439e537143a5bb36",
      "contractAddress": null
    }
  ],
  "libraries": [],
  "pending": [],
  "returns": {},
  "timestamp": 1760714533,
  "chain": 11155111,
  "commit": "958705f"
}