{
  "transactions": [
    {
      "hash": "0xb86fa90287c94d7d1f89cca37ea914d14781bc044b51b3980868b304307fdcbc",
      "transactionType": "CALL",
      "contractName": null,
      "contractAddress": "0xb0fa37af1d66adb5c19687ba4851357ade15a40c",
      "function": "applyChainUpdates((uint64,bool,bytes,bytes,(bool,uint128,uint128),(bool,uint128,uint128))[])",
      "arguments": [
        "[(6898391096552792247, true, 0x00000000000000000000000056d6c851c9e51927ae8a473afea2fd9ea96e3663, 0x00000000000000000000000039c4b59a2d3af60b7bb57b783569da7e34e1ddf1, (false, 0, 0), (false, 0, 0))]"
      ],
      "transaction": {
        "from": "0x2cb4f72907b1ec202a2f751da0286aa9ee2e3b33",
        "to": "0xb0fa37af1d66adb5c19687ba4851357ade15a40c",
        "gas": "0x553a3",
        "value": "0x0",
        "input": "0xdb6327dc0000000000000000000000000000000000000000000000000000000000000020000000000000000000000000000000000000000000000000000000000000000100000000000000000000000000000000000000000000000000000000000000200000000000000000000000000000000000000000000000005fbc02272fbf20b7000000000000000000000000000000000000000000000000000000000000000100000000000000000000000000000000000000000000000000000000000001400000000000000000000000000000000000000000000000000000000000000180000000000000000000000000000000000000000000000000000000000000000000000000000000000000000000000000000000000000000000000000000000000000000000000000000000000000000000000000000000000000000000000000000000000000000000000000000000000000000000000000000000000000000000000000000000000000000000000000000000000000000000000000000000000000000000000000000000000000000000000000000000000000000000000000000000000000000000000000000000000000000000000000000000000000002000000000000000000000000056d6c851c9e51927ae8a473afea2fd9ea96e3663000000000000000000000000000000000000000000000000000000000000002000000000000000000000000039c4b59a2d3af60b7bb57b783569da7e34e1ddf1",
        "nonce": "0xce",
        "chainId": "0xaa36a7"
      },
      "additionalContracts": [],
      "isFixedGasLimit": false
    }
  ],
  "receipts": [
    {
      "status": "0x1",
      "cumulativeGasUsed": "0xe6a199",
      "logs": [
        {
          "address": "0xb0fa37af1d66adb5c19687ba4851357ade15a40c",
          "topics": [
            "0x8d340f17e19058004c20453540862a9c62778504476f6756755cb33bcd6c38c2"
          ],
          "data": "0x0000000000000000000000000000000000000000000000005fbc02272fbf20b70000000000000000000000000000000000000000000000000000000000000100000000000000000000000000000000000000000000000000000000000000000000000000000000000000000000000000000000000000000000000000000000000000000000000000000000000000000000000000000000000000000000000000000000000000000000000000000000000000000000000000000000000000000000000000000000000000000000000000000000000000000000000000000000000000000000000000000000000000000000000000000000000000000000000000000000000000000000000000000000000000000000000000000000000000002000000000000000000000000039c4b59a2d3af60b7bb57b783569da7e34e1ddf1",
          "blockHash": "0xe816997ec4a1ee18bac75527d18c83f413df7370ad76f84fb13cdaba79f89ec8",
          "blockNumber": "0x8febd8",
          "blockTimestamp": "0x68f26170",
          "transactionHash": "0xb86fa90287c94d7d1f89cca37ea914d14781bc044b51b3980868b304307fdcbc",
          "transactionIndex": "0x64",
          "logIndex": "0x99",
          "removed": false
        }
      ],
      "logsBloom": "0x00000000000000400000000000000000000002000000000000000000000000000000000000000000000000000000000100000000000000000004000000000000000000000000000000000000000000000000000000000000000000000000000000000000000000000000000000000000000000000000000000000000000000000000000000000000000000000000000000000000000000000000000000000000000000000000000000000000000000000000000000000000000000000000000000000000000000000000000000000000000000000000000000000000000000000000000000000000000000040000000000000000000000000100000000000000",
      "type": "0x2",
      "transactionHash": "0xb86fa90287c94d7d1f89cca37ea914d14781bc044b51b3980868b304307fdcbc",
      "transactionIndex": "0x64",
      "blockHash": "0xe816997ec4a1ee18bac75527d18c83f413df7370ad76f84fb13cdaba79f89ec8",
      "blockNumber": "0x8febd8",
      "gasUsed": "0x3db40",
      "effectiveGasPrice": "0xf424c",
      "from": "0x2cb4f72907b1ec202a2f751da0286aa9ee2e3b33",
      "to": "0xb0fa37af1d66adb5c19687ba4851357ade15a40c",
      "contractAddress": null
    }
  ],
  "libraries": [],
  "pending": [],
  "returns": {},
  "timestamp": 1760715122,
  "chain": 11155111,
  "commit": "958705f"
}