{
  "transactions": [
    {
      "hash": "0x16aa12ee058150da6b7742f04e962c3f9d2a399dec34028c45cb919f37e27c29",
      "transactionType": "CALL",
      "contractName": null,
      "contractAddress": "0x779877a7b0d9e8603169ddbd7836e478b4624789",
      "function": "approve(address,uint256)",
      "arguments": [
        "0x0BF3dE8c5D3e8A2B34D2BEeB17ABfCeBaf363A59",
        "15102579144224351"
      ],
      "transaction": {
        "from": "0x2cb4f72907b1ec202a2f751da0286aa9ee2e3b33",
        "to": "0x779877a7b0d9e8603169ddbd7836e478b4624789",
        "gas": "0x1081f",
        "value": "0x0",
        "input": "0x095ea7b30000000000000000000000000bf3de8c5d3e8a2b34d2beeb17abfcebaf363a590000000000000000000000000000000000000000000000000035a7b739156e5f",
        "nonce": "0xb6",
        "chainId": "0xaa36a7"
      },
      "additionalContracts": [],
      "isFixedGasLimit": false
    },
    {
      "hash": "0x039ecf8512855c48a09b1dc98966017c18bfadb031f96b4ac64e30452913f35d",
      "transactionType": "CALL",
      "contractName": null,
      "contractAddress": "0xcecbdc87ceba321f1d7976bf3f264d3ec9612c10",
      "function": "approve(address,uint256)",
      "arguments": [
        "0x0BF3dE8c5D3e8A2B34D2BEeB17ABfCeBaf363A59",
        "100000"
      ],
      "transaction": {
        "from": "0x2cb4f72907b1ec202a2f751da0286aa9ee2e3b33",
        "to": "0xcecbdc87ceba321f1d7976bf3f264d3ec9612c10",
        "gas": "0x11554",
        "value": "0x0",
        "input": "0x095ea7b30000000000000000000000000bf3de8c5d3e8a2b34d2beeb17abfcebaf363a5900000000000000000000000000000000000000000000000000000000000186a0",
        "nonce": "0xb7",
        "chainId": "0xaa36a7"
      },
      "additionalContracts": [],
      "isFixedGasLimit": false
    },
    {
      "hash": "0x43e7b5b62d7465905335646619b632e65b25dc12c97018245c921c4393000e21",
      "transactionType": "CALL",
      "contractName": null,
      "contractAddress": "0x0bf3de8c5d3e8a2b34d2beeb17abfcebaf363a59",
      "function": "ccipSend(uint64,(bytes,bytes,(address,uint256)[],address,bytes))",
      "arguments": [
        "6898391096552792247",
        "(0x0000000000000000000000002cb4f72907b1ec202a2f751da0286aa9ee2e3b33, 0x, [(0xcecBdc87CEBA321f1d7976BF3f264D3EC9612c10, 100000)], 0x779877A7B0D9E8603169DdbD7836e478b4624789, 0x97a657c90000000000000000000000000000000000000000000000000000000000000000)"
      ],
      "transaction": {
        "from": "0x2cb4f72907b1ec202a2f751da0286aa9ee2e3b33",
        "to": "0x0bf3de8c5d3e8a2b34d2beeb17abfcebaf363a59",
        "gas": "0x65799",
        "value": "0x0",
        "input": "0x96f4e9f90000000000000000000000000000000000000000000000005fbc02272fbf20b7000000000000000000000000000000000000000000000000000000000000004000000000000000000000000000000000000000000000000000000000000000a000000000000000000000000000000000000000000000000000000000000000e00000000000000000000000000000000000000000000000000000000000000100000000000000000000000000779877a7b0d9e8603169ddbd7836e478b4624789000000000000000000000000000000000000000000000000000000000000016000000000000000000000000000000000000000000000000000000000000000200000000000000000000000002cb4f72907b1ec202a2f751da0286aa9ee2e3b3300000000000000000000000000000000000000000000000000000000000000000000000000000000000000000000000000000000000000000000000000000001000000000000000000000000cecbdc87ceba321f1d7976bf3f264d3ec9612c1000000000000000000000000000000000000000000000000000000000000186a0000000000000000000000000000000000000000000000000000000000000002497a657c9000000000000000000000000000000000000000000000000000000000000000000000000000000000000000000000000000000000000000000000000",
        "nonce": "0xb8",
        "chainId": "0xaa36a7"
      },
      "additionalContracts": [],
      "isFixedGasLimit": false
    }
  ],
  "receipts": [
    {
      "status": "0x1",
      "cumulativeGasUsed": "0x4edb9b",
      "logs": [
        {
          "address": "0x779877a7b0d9e8603169ddbd7836e478b4624789",
          "topics": [
            "0x8c5be1e5ebec7d5bd14f71427d1e84f3dd0314c0f7b2291e5b200ac8c7c3b925",
            "0x0000000000000000000000002cb4f72907b1ec202a2f751da0286aa9ee2e3b33",
            "0x0000000000000000000000000bf3de8c5d3e8a2b34d2beeb17abfcebaf363a59"
          ],
          "data": "0x0000000000000000000000000000000000000000000000000035a7b739156e5f",
          "blockHash": "0xadf089fa08a570313d3fc1df82d123195f9686029d801856f53319355868b541",
          "blockNumber": "0x8febab",
          "blockTimestamp": "0x68f25f54",
          "transactionHash": "0x16aa12ee058150da6b7742f04e962c3f9d2a399dec34028c45cb919f37e27c29",
          "transactionIndex": "0x3d",
          "logIndex": "0x45",
          "removed": false
        }
      ],
      "logsBloom": "0x00100004000040000000000000000000000000000000000000000000000000000000000000000000000000000000000000000000000000000000000000280000000000000000000000000000000000000000000000000000000000000000000000000000000100000000000000000000000000000000000000000000000000000000000000000000000000000000800000000000000000000000000000000000020000001000080000000000000000000000000000000000000000000000000000000000000000000000000000000000000000000000000100000000000000000010000000000000000000000000000000000000000000000000000000000000",
      "type": "0x2",
      "transactionHash": "0x16aa12ee058150da6b7742f04e962c3f9d2a399dec34028c45cb919f37e27c29",
      "transactionIndex": "0x3d",
      "blockHash": "0xadf089fa08a570313d3fc1df82d123195f9686029d801856f53319355868b541",
      "blockNumber": "0x8febab",
      "gasUsed": "0xb499",
      "effectiveGasPrice": "0xf424c",
      "from": "0x2cb4f72907b1ec202a2f751da0286aa9ee2e3b33",
      "to": "0x779877a7b0d9e8603169ddbd7836e478b4624789",
      "contractAddress": null
    },
    {
      "status": "0x1",
      "cumulativeGasUsed": "0x4f993c",
      "logs": [
        {
          "address": "0xcecbdc87ceba321f1d7976bf3f264d3ec9612c10",
          "topics": [
            "0x8c5be1e5ebec7d5bd14f71427d1e84f3dd0314c0f7b2291e5b200ac8c7c3b925",
            "0x0000000000000000000000002cb4f72907b1ec202a2f751da0286aa9ee2e3b33",
            "0x0000000000000000000000000bf3de8c5d3e8a2b34d2beeb17abfcebaf363a59"
          ],
          "data": "0x00000000000000000000000000000000000000000000000000000000000186a0",
          "blockHash": "0xadf089fa08a570313d3fc1df82d123195f9686029d801856f53319355868b541",
          "blockNumber": "0x8febab",
          "blockTimestamp": "0x68f25f54",
          "transactionHash": "0x039ecf8512855c48a09b1dc98966017c18bfadb031f96b4ac64e30452913f35d",
          "transactionIndex": "0x3e",
          "logIndex": "0x46",
          "removed": false
        }
      ],
      "logsBloom": "0x00100000000040000000000000000000000000000000010000000000000000000000000000000000000000000000000000000000000000000000000000280000000000000000000000000000000000000000000000000000000000000000000000000000000100000000000000000000000000000000000000000000000000000000000000000000000000000000000000000000000000000000000000000000020000001000080000000000000000000000000000000000000000000000200000000000000000000000000000000000000000000000000000000000000000000010000000200000000000000000000000000000000000000000000000000000",
      "type": "0x2",
      "transactionHash": "0x039ecf8512855c48a09b1dc98966017c18bfadb031f96b4ac64e30452913f35d",
      "transactionIndex": "0x3e",
      "blockHash": "0xadf089fa08a570313d3fc1df82d123195f9686029d801856f53319355868b541",
      "blockNumber": "0x8febab",
      "gasUsed": "0xbda1",
      "effectiveGasPrice": "0xf424c",
      "from": "0x2cb4f72907b1ec202a2f751da0286aa9ee2e3b33",
      "to": "0xcecbdc87ceba321f1d7976bf3f264d3ec9612c10",
      "contractAddress": null
    },
    {
      "status": "0x1",
      "cumulativeGasUsed": "0x5430b1",
      "logs": [
        {
          "address": "0x779877a7b0d9e8603169ddbd7836e478b4624789",
          "topics": [
            "0xddf252ad1be2c89b69c2b068fc378daa952ba7f163c4a11628f55a4df523b3ef",
            "0x0000000000000000000000002cb4f72907b1ec202a2f751da0286aa9ee2e3b33",
            "0x000000000000000000000000a2865e4f36760f5fa5c8f958336120f2df0d974b"
          ],
          "data": "0x0000000000000000000000000000000000000000000000000035a7b739156e5f",
          "blockHash": "0xadf089fa08a570313d3fc1df82d123195f9686029d801856f53319355868b541",
          "blockNumber": "0x8febab",
          "blockTimestamp": "0x68f25f54",
          "transactionHash": "0x43e7b5b62d7465905335646619b632e65b25dc12c97018245c921c4393000e21",
          "transactionIndex": "0x3f",
          "logIndex": "0x47",
          "removed": false
        },
        {
          "address": "0x779877a7b0d9e8603169ddbd7836e478b4624789",
          "topics": [
            "0x8c5be1e5ebec7d5bd14f71427d1e84f3dd0314c0f7b2291e5b200ac8c7c3b925",
            "0x0000000000000000000000002cb4f72907b1ec202a2f751da0286aa9ee2e3b33",
            "0x0000000000000000000000000bf3de8c5d3e8a2b34d2beeb17abfcebaf363a59"
          ],
          "data": "0x0000000000000000000000000000000000000000000000000000000000000000",
          "blockHash": "0xadf089fa08a570313d3fc1df82d123195f9686029d801856f53319355868b541",
          "blockNumber": "0x8febab",
          "blockTimestamp": "0x68f25f54",
          "transactionHash": "0x43e7b5b62d7465905335646619b632e65b25dc12c97018245c921c4393000e21",
          "transactionIndex": "0x3f",
          "logIndex": "0x48",
          "removed": false
        },
        {
          "address": "0xcecbdc87ceba321f1d7976bf3f264d3ec9612c10",
          "topics": [
            "0xddf252ad1be2c89b69c2b068fc378daa952ba7f163c4a11628f55a4df523b3ef",
            "0x0000000000000000000000000000000000000000000000000000000000000000",
            "0x0000000000000000000000002cb4f72907b1ec202a2f751da0286aa9ee2e3b33"
          ],
          "data": "0x0000000000000000000000000000000000000000000000000000000000000000",
          "blockHash": "0xadf089fa08a570313d3fc1df82d123195f9686029d801856f53319355868b541",
          "blockNumber": "0x8febab",
          "blockTimestamp": "0x68f25f54",
          "transactionHash": "0x43e7b5b62d7465905335646619b632e65b25dc12c97018245c921c4393000e21",
          "transactionIndex": "0x3f",
          "logIndex": "0x49",
          "removed": false
        },
        {
          "address": "0xcecbdc87ceba321f1d7976bf3f264d3ec9612c10",
          "topics": [
            "0xddf252ad1be2c89b69c2b068fc378daa952ba7f163c4a11628f55a4df523b3ef",
            "0x0000000000000000000000000000000000000000000000000000000000000000",
            "0x000000000000000000000000b8c311608af21b80b087cb77439e537143a5bb36"
          ],
          "data": "0x0000000000000000000000000000000000000000000000000000000000000000",
          "blockHash": "0xadf089fa08a570313d3fc1df82d123195f9686029d801856f53319355868b541",
          "blockNumber": "0x8febab",
          "blockTimestamp": "0x68f25f54",
          "transactionHash": "0x43e7b5b62d7465905335646619b632e65b25dc12c97018245c921c4393000e21",
          "transactionIndex": "0x3f",
          "logIndex": "0x4a",
          "removed": false
        },
        {
          "address": "0xcecbdc87ceba321f1d7976bf3f264d3ec9612c10",
          "topics": [
            "0xddf252ad1be2c89b69c2b068fc378daa952ba7f163c4a11628f55a4df523b3ef",
            "0x0000000000000000000000002cb4f72907b1ec202a2f751da0286aa9ee2e3b33",
            "0x000000000000000000000000b8c311608af21b80b087cb77439e537143a5bb36"
          ],
          "data": "0x00000000000000000000000000000000000000000000000000000000000186a0",
          "blockHash": "0xadf089fa08a570313d3fc1df82d123195f9686029d801856f53319355868b541",
          "blockNumber": "0x8febab",
          "blockTimestamp": "0x68f25f54",
          "transactionHash": "0x43e7b5b62d7465905335646619b632e65b25dc12c97018245c921c4393000e21",
          "transactionIndex": "0x3f",
          "logIndex": "0x4b",
          "removed": false
        },
        {
          "address": "0xcecbdc87ceba321f1d7976bf3f264d3ec9612c10",
          "topics": [
            "0xddf252ad1be2c89b69c2b068fc378daa952ba7f163c4a11628f55a4df523b3ef",
            "0x0000000000000000000000000000000000000000000000000000000000000000",
            "0x000000000000000000000000b8c311608af21b80b087cb77439e537143a5bb36"
          ],
          "data": "0x0000000000000000000000000000000000000000000000000000000000000000",
          "blockHash": "0xadf089fa08a570313d3fc1df82d123195f9686029d801856f53319355868b541",
          "blockNumber": "0x8febab",
          "blockTimestamp": "0x68f25f54",
          "transactionHash": "0x43e7b5b62d7465905335646619b632e65b25dc12c97018245c921c4393000e21",
          "transactionIndex": "0x3f",
          "logIndex": "0x4c",
          "removed": false
        },
        {
          "address": "0xcecbdc87ceba321f1d7976bf3f264d3ec9612c10",
          "topics": [
            "0xddf252ad1be2c89b69c2b068fc378daa952ba7f163c4a11628f55a4df523b3ef",
            "0x000000000000000000000000b8c311608af21b80b087cb77439e537143a5bb36",
            "0x0000000000000000000000000000000000000000000000000000000000000000"
          ],
          "data": "0x00000000000000000000000000000000000000000000000000000000000186a0",
          "blockHash": "0xadf089fa08a570313d3fc1df82d123195f9686029d801856f53319355868b541",
          "blockNumber": "0x8febab",
          "blockTimestamp": "0x68f25f54",
          "transactionHash": "0x43e7b5b62d7465905335646619b632e65b25dc12c97018245c921c4393000e21",
          "transactionIndex": "0x3f",
          "logIndex": "0x4d",
          "removed": false
        },
        {
          "address": "0xa2865e4f36760f5fa5c8f958336120f2df0d974b",
          "topics": [
            "0xd0c3c799bf9e2639de44391e7f524d229b2b55f5b1ea94b2bf7da42f7243dddd"
          ],
          "data": "0x0000000000000000000000000000000000000000000000000000000000000020000000000000000000000000000000000000000000000000de41ba4fc9d91ad90000000000000000000000002cb4f72907b1ec202a2f751da0286aa9ee2e3b330000000000000000000000002cb4f72907b1ec202a2f751da0286aa9ee2e3b330000000000000000000000000000000000000000000000000000000000000302000000000000000000000000000000000000000000000000000000000000000000000000000000000000000000000000000000000000000000000000000000000000000000000000000000000000000000000000000000000000000000000001000000000000000000000000779877a7b0d9e8603169ddbd7836e478b46247890000000000000000000000000000000000000000000000000035a7b739156e5f00000000000000000000000000000000000000000000000000000000000001a000000000000000000000000000000000000000000000000000000000000001c00000000000000000000000000000000000000000000000000000000000000220abf9c75ef3db80fb855dcb9ecdc415c14c647377e36dc0be9c5713c44d9bb21800000000000000000000000000000000000000000000000000000000000000000000000000000000000000000000000000000000000000000000000000000001000000000000000000000000cecbdc87ceba321f1d7976bf3f264d3ec9612c1000000000000000000000000000000000000000000000000000000000000186a00000000000000000000000000000000000000000000000000000000000000001000000000000000000000000000000000000000000000000000000000000002000000000000000000000000000000000000000000000000000000000000001600000000000000000000000000000000000000000000000000000000000000020000000000000000000000000000000000000000000000000000000000000008000000000000000000000000000000000000000000000000000000000000000c000000000000000000000000000000000000000000000000000000000000001000000000000000000000000000000000000000000000000000000000000015f900000000000000000000000000000000000000000000000000000000000000020000000000000000000000000b8c311608af21b80b087cb77439e537143a5bb360000000000000000000000000000000000000000000000000000000000000020000000000000000000000000efa7ed391b1a78d6ec809be4db5b211b0bed28c900000000000000000000000000000000000000000000000000000000000000200000000000000000000000000000000000000000000000000000000ba43b7400",
          "blockHash": "0xadf089fa08a570313d3fc1df82d123195f9686029d801856f53319355868b541",
          "blockNumber": "0x8febab",
          "blockTimestamp": "0x68f25f54",
          "transactionHash": "0x43e7b5b62d7465905335646619b632e65b25dc12c97018245c921c4393000e21",
          "transactionIndex": "0x3f",
          "logIndex": "0x4e",
          "removed": false
        }
      ],
      "logsBloom": "0x00100004000040000000000000000000000000000000010000000000000000000000000000000000000000000000000000000000000000000000000000280000000000000000000000000008000000000000000000000000000000000000000010000000020100000000000000000800000000000000100000000010000000000000000000000000000000000000800000000000000000000000000000000000020000001000080400000000000000000000000000000000000100010000200000000002000000050000000000000000000000000100000100000000000020000010801000200000000000000000000004000800000000000000000000000000",
      "type": "0x2",
      "transactionHash": "0x43e7b5b62d7465905335646619b632e65b25dc12c97018245c921c4393000e21",
      "transactionIndex": "0x3f",
      "blockHash": "0xadf089fa08a570313d3fc1df82d123195f9686029d801856f53319355868b541",
      "blockNumber": "0x8febab",
      "gasUsed": "0x49775",
      "effectiveGasPrice": "0xf424c",
      "from": "0x2cb4f72907b1ec202a2f751da0286aa9ee2e3b33",
      "to": "0x0bf3de8c5d3e8a2b34d2beeb17abfcebaf363a59",
      "contractAddress": null
    }
  ],
  "libraries": [],
  "pending": [],
  "returns": {},
  "timestamp": 1760714583,
  "chain": 11155111,
  "commit": "958705f"
}