{
  "transactions": [
    {
      "hash": "0xd927891e2934127eb6bffd839dfd151dc1c323b773ed2745ff313a68dda9109b",
      "transactionType": "CALL",
      "contractName": null,
      "contractAddress": "0x779877a7b0d9e8603169ddbd7836e478b4624789",
      "function": "approve(address,uint256)",
      "arguments": [
        "0x0BF3dE8c5D3e8A2B34D2BEeB17ABfCeBaf363A59",
        "15102579144224351"
      ],
      "transaction": {
        "from": "0x2cb4f72907b1ec202a2f751da0286aa9ee2e3b33",
        "to": "0x779877a7b0d9e8603169ddbd7836e478b4624789",
        "gas": "0x1081f",
        "value": "0x0",
        "input": "0x095ea7b30000000000000000000000000bf3de8c5d3e8a2b34d2beeb17abfcebaf363a590000000000000000000000000000000000000000000000000035a7b739156e5f",
        "nonce": "0xd0",
        "chainId": "0xaa36a7"
      },
      "additionalContracts": [],
      "isFixedGasLimit": false
    },
    {
      "hash": "0xc3ad63d7ed45a06ec0067ea41649a940cdbb82aba823bcdda3bb1ab1f1d7e5b1",
      "transactionType": "CALL",
      "contractName": null,
      "contractAddress": "0x2bb244e0b900037c380c9c562482f177b14e5755",
      "function": "approve(address,uint256)",
      "arguments": [
        "0x0BF3dE8c5D3e8A2B34D2BEeB17ABfCeBaf363A59",
        "100000"
      ],
      "transaction": {
        "from": "0x2cb4f72907b1ec202a2f751da0286aa9ee2e3b33",
        "to": "0x2bb244e0b900037c380c9c562482f177b14e5755",
        "gas": "0x11554",
        "value": "0x0",
        "input": "0x095ea7b30000000000000000000000000bf3de8c5d3e8a2b34d2beeb17abfcebaf363a5900000000000000000000000000000000000000000000000000000000000186a0",
        "nonce": "0xd1",
        "chainId": "0xaa36a7"
      },
      "additionalContracts": [],
      "isFixedGasLimit": false
    },
    {
      "hash": "0xe53851ef96a57e71732df84bf8239b199d05a1965f446c7c97b80602986ab9f9",
      "transactionType": "CALL",
      "contractName": null,
      "contractAddress": "0x0bf3de8c5d3e8a2b34d2beeb17abfcebaf363a59",
      "function": "ccipSend(uint64,(bytes,bytes,(address,uint256)[],address,bytes))",
      "arguments": [
        "6898391096552792247",
        "(0x0000000000000000000000002cb4f72907b1ec202a2f751da0286aa9ee2e3b33, 0x, [(0x2bb244e0b900037C380c9c562482F177b14e5755, 100000)], 0x779877A7B0D9E8603169DdbD7836e478b4624789, 0x97a657c90000000000000000000000000000000000000000000000000000000000000000)"
      ],
      "transaction": {
        "from": "0x2cb4f72907b1ec202a2f751da0286aa9ee2e3b33",
        "to": "0x0bf3de8c5d3e8a2b34d2beeb17abfcebaf363a59",
        "gas": "0x5daf9",
        "value": "0x0",
        "input": "0x96f4e9f90000000000000000000000000000000000000000000000005fbc02272fbf20b7000000000000000000000000000000000000000000000000000000000000004000000000000000000000000000000000000000000000000000000000000000a000000000000000000000000000000000000000000000000000000000000000e00000000000000000000000000000000000000000000000000000000000000100000000000000000000000000779877a7b0d9e8603169ddbd7836e478b4624789000000000000000000000000000000000000000000000000000000000000016000000000000000000000000000000000000000000000000000000000000000200000000000000000000000002cb4f72907b1ec202a2f751da0286aa9ee2e3b33000000000000000000000000000000000000000000000000000000000000000000000000000000000000000000000000000000000000000000000000000000010000000000000000000000002bb244e0b900037c380c9c562482f177b14e575500000000000000000000000000000000000000000000000000000000000186a0000000000000000000000000000000000000000000000000000000000000002497a657c9000000000000000000000000000000000000000000000000000000000000000000000000000000000000000000000000000000000000000000000000",
        "nonce": "0xd2",
        "chainId": "0xaa36a7"
      },
      "additionalContracts": [],
      "isFixedGasLimit": false
    }
  ],
  "receipts": [
    {
      "status": "0x1",
      "cumulativeGasUsed": "0x552ef8",
      "logs": [
        {
          "address": "0x779877a7b0d9e8603169ddbd7836e478b4624789",
          "topics": [
            "0x8c5be1e5ebec7d5bd14f71427d1e84f3dd0314c0f7b2291e5b200ac8c7c3b925",
            "0x0000000000000000000000002cb4f72907b1ec202a2f751da0286aa9ee2e3b33",
            "0x0000000000000000000000000bf3de8c5d3e8a2b34d2beeb17abfcebaf363a59"
          ],
          "data": "0x0000000000000000000000000000000000000000000000000035a7b739156e5f",
          "blockHash": "0xa38d900d8430c883f0b7d02bf783a735e669aca877125acfee8a4aa323aec549",
          "blockNumber": "0x8febdc",
          "blockTimestamp": "0x68f261a0",
          "transactionHash": "0xd927891e2934127eb6bffd839dfd151dc1c323b773ed2745ff313a68dda9109b",
          "transactionIndex": "0x48",
          "logIndex": "0x4e",
          "removed": false
        }
      ],
      "logsBloom": "0x00100004000040000000000000000000000000000000000000000000000000000000000000000000000000000000000000000000000000000000000000280000000000000000000000000000000000000000000000000000000000000000000000000000000100000000000000000000000000000000000000000000000000000000000000000000000000000000800000000000000000000000000000000000020000001000080000000000000000000000000000000000000000000000000000000000000000000000000000000000000000000000000100000000000000000010000000000000000000000000000000000000000000000000000000000000",
      "type": "0x2",
      "transactionHash": "0xd927891e2934127eb6bffd839dfd151dc1c323b773ed2745ff313a68dda9109b",
      "transactionIndex": "0x48",
      "blockHash": "0xa38d900d8430c883f0b7d02bf783a735e669aca877125acfee8a4aa323aec549",
      "blockNumber": "0x8febdc",
      "gasUsed": "0xb499",
      "effectiveGasPrice": "0xf424f",
      "from": "0x2cb4f72907b1ec202a2f751da0286aa9ee2e3b33",
      "to": "0x779877a7b0d9e8603169ddbd7836e478b4624789",
      "contractAddress": null
    },
    {
      "status": "0x1",
      "cumulativeGasUsed": "0x55ec99",
      "logs": [
        {
          "address": "0x2bb244e0b900037c380c9c562482f177b14e5755",
          "topics": [
            "0x8c5be1e5ebec7d5bd14f71427d1e84f3dd0314c0f7b2291e5b200ac8c7c3b925",
            "0x0000000000000000000000002cb4f72907b1ec202a2f751da0286aa9ee2e3b33",
            "0x0000000000000000000000000bf3de8c5d3e8a2b34d2beeb17abfcebaf363a59"
          ],
          "data": "0x00000000000000000000000000000000000000000000000000000000000186a0",
          "blockHash": "0xa38d900d8430c883f0b7d02bf783a735e669aca877125acfee8a4aa323aec549",
          "blockNumber": "0x8febdc",
          "blockTimestamp": "0x68f261a0",
          "transactionHash": "0xc3ad63d7ed45a06ec0067ea41649a940cdbb82aba823bcdda3bb1ab1f1d7e5b1",
          "transactionIndex": "0x49",
          "logIndex": "0x4f",
          "removed": false
        }
      ],
      "logsBloom": "0x00100000000040000000000000000000000000000000000000000000000000000000000000000000000000000000000000000000000000000000000000280000000000000000000000000000000000000000000000000000000000000000000000000000000100000000000000000000000000000000000000000000000000000000000000000000000000000000000000000000000000000000000000000000020000001000080000000000000000000000400000000000000000000000000000000000000000000000000000000000000000000004000000000000000000000010000000000000000000000000000000400000000000000000000000000000",
      "type": "0x2",
      "transactionHash": "0xc3ad63d7ed45a06ec0067ea41649a940cdbb82aba823bcdda3bb1ab1f1d7e5b1",
      "transactionIndex": "0x49",
      "blockHash": "0xa38d900d8430c883f0b7d02bf783a735e669aca877125acfee8a4aa323aec549",
      "blockNumber": "0x8febdc",
      "gasUsed": "0xbda1",
      "effectiveGasPrice": "0xf424f",
      "from": "0x2cb4f72907b1ec202a2f751da0286aa9ee2e3b33",
      "to": "0x2bb244e0b900037c380c9c562482f177b14e5755",
      "contractAddress": null
    },
    {
      "status": "0x1",
      "cumulativeGasUsed": "0x5a29d5",
      "logs": [
        {
          "address": "0x779877a7b0d9e8603169ddbd7836e478b4624789",
          "topics": [
            "0xddf252ad1be2c89b69c2b068fc378daa952ba7f163c4a11628f55a4df523b3ef",
            "0x0000000000000000000000002cb4f72907b1ec202a2f751da0286aa9ee2e3b33",
            "0x000000000000000000000000a2865e4f36760f5fa5c8f958336120f2df0d974b"
          ],
          "data": "0x0000000000000000000000000000000000000000000000000035a7b739156e5f",
          "blockHash": "0xa38d900d8430c883f0b7d02bf783a735e669aca877125acfee8a4aa323aec549",
          "blockNumber": "0x8febdc",
          "blockTimestamp": "0x68f261a0",
          "transactionHash": "0xe53851ef96a57e71732df84bf8239b199d05a1965f446c7c97b80602986ab9f9",
          "transactionIndex": "0x4a",
          "logIndex": "0x50",
          "removed": false
        },
        {
          "address": "0x779877a7b0d9e8603169ddbd7836e478b4624789",
          "topics": [
            "0x8c5be1e5ebec7d5bd14f71427d1e84f3dd0314c0f7b2291e5b200ac8c7c3b925",
            "0x0000000000000000000000002cb4f72907b1ec202a2f751da0286aa9ee2e3b33",
            "0x0000000000000000000000000bf3de8c5d3e8a2b34d2beeb17abfcebaf363a59"
          ],
          "data": "0x0000000000000000000000000000000000000000000000000000000000000000",
          "blockHash": "0xa38d900d8430c883f0b7d02bf783a735e669aca877125acfee8a4aa323aec549",
          "blockNumber": "0x8febdc",
          "blockTimestamp": "0x68f261a0",
          "transactionHash": "0xe53851ef96a57e71732df84bf8239b199d05a1965f446c7c97b80602986ab9f9",
          "transactionIndex": "0x4a",
          "logIndex": "0x51",
          "removed": false
        },
        {
          "address": "0x2bb244e0b900037c380c9c562482f177b14e5755",
          "topics": [
            "0xddf252ad1be2c89b69c2b068fc378daa952ba7f163c4a11628f55a4df523b3ef",
            "0x0000000000000000000000000000000000000000000000000000000000000000",
            "0x0000000000000000000000002cb4f72907b1ec202a2f751da0286aa9ee2e3b33"
          ],
          "data": "0x0000000000000000000000000000000000000000000000000000000000000000",
          "blockHash": "0xa38d900d8430c883f0b7d02bf783a735e669aca877125acfee8a4aa323aec549",
          "blockNumber": "0x8febdc",
          "blockTimestamp": "0x68f261a0",
          "transactionHash": "0xe53851ef96a57e71732df84bf8239b199d05a1965f446c7c97b80602986ab9f9",
          "transactionIndex": "0x4a",
          "logIndex": "0x52",
          "removed": false
        },
        {
          "address": "0x2bb244e0b900037c380c9c562482f177b14e5755",
          "topics": [
            "0xddf252ad1be2c89b69c2b068fc378daa952ba7f163c4a11628f55a4df523b3ef",
            "0x0000000000000000000000000000000000000000000000000000000000000000",
            "0x000000000000000000000000b0fa37af1d66adb5c19687ba4851357ade15a40c"
          ],
          "data": "0x0000000000000000000000000000000000000000000000000000000000000000",
          "blockHash": "0xa38d900d8430c883f0b7d02bf783a735e669aca877125acfee8a4aa323aec549",
          "blockNumber": "0x8febdc",
          "blockTimestamp": "0x68f261a0",
          "transactionHash": "0xe53851ef96a57e71732df84bf8239b199d05a1965f446c7c97b80602986ab9f9",
          "transactionIndex": "0x4a",
          "logIndex": "0x53",
          "removed": false
        },
        {
          "address": "0x2bb244e0b900037c380c9c562482f177b14e5755",
          "topics": [
            "0xddf252ad1be2c89b69c2b068fc378daa952ba7f163c4a11628f55a4df523b3ef",
            "0x0000000000000000000000002cb4f72907b1ec202a2f751da0286aa9ee2e3b33",
            "0x000000000000000000000000b0fa37af1d66adb5c19687ba4851357ade15a40c"
          ],
          "data": "0x00000000000000000000000000000000000000000000000000000000000186a0",
          "blockHash": "0xa38d900d8430c883f0b7d02bf783a735e669aca877125acfee8a4aa323aec549",
          "blockNumber": "0x8febdc",
          "blockTimestamp": "0x68f261a0",
          "transactionHash": "0xe53851ef96a57e71732df84bf8239b199d05a1965f446c7c97b80602986ab9f9",
          "transactionIndex": "0x4a",
          "logIndex": "0x54",
          "removed": false
        },
        {
          "address": "0x2bb244e0b900037c380c9c562482f177b14e5755",
          "topics": [
            "0xddf252ad1be2c89b69c2b068fc378daa952ba7f163c4a11628f55a4df523b3ef",
            "0x0000000000000000000000000000000000000000000000000000000000000000",
            "0x000000000000000000000000b0fa37af1d66adb5c19687ba4851357ade15a40c"
          ],
          "data": "0x0000000000000000000000000000000000000000000000000000000000000000",
          "blockHash": "0xa38d900d8430c883f0b7d02bf783a735e669aca877125acfee8a4aa323aec549",
          "blockNumber": "0x8febdc",
          "blockTimestamp": "0x68f261a0",
          "transactionHash": "0xe53851ef96a57e71732df84bf8239b199d05a1965f446c7c97b80602986ab9f9",
          "transactionIndex": "0x4a",
          "logIndex": "0x55",
          "removed": false
        },
        {
          "address": "0x2bb244e0b900037c380c9c562482f177b14e5755",
          "topics": [
            "0xddf252ad1be2c89b69c2b068fc378daa952ba7f163c4a11628f55a4df523b3ef",
            "0x000000000000000000000000b0fa37af1d66adb5c19687ba4851357ade15a40c",
            "0x0000000000000000000000000000000000000000000000000000000000000000"
          ],
          "data": "0x00000000000000000000000000000000000000000000000000000000000186a0",
          "blockHash": "0xa38d900d8430c883f0b7d02bf783a735e669aca877125acfee8a4aa323aec549",
          "blockNumber": "0x8febdc",
          "blockTimestamp": "0x68f261a0",
          "transactionHash": "0xe53851ef96a57e71732df84bf8239b199d05a1965f446c7c97b80602986ab9f9",
          "transactionIndex": "0x4a",
          "logIndex": "0x56",
          "removed": false
        },
        {
          "address": "0xa2865e4f36760f5fa5c8f958336120f2df0d974b",
          "topics": [
            "0xd0c3c799bf9e2639de44391e7f524d229b2b55f5b1ea94b2bf7da42f7243dddd"
          ],
          "data": "0x0000000000000000000000000000000000000000000000000000000000000020000000000000000000000000000000000000000000000000de41ba4fc9d91ad90000000000000000000000002cb4f72907b1ec202a2f751da0286aa9ee2e3b330000000000000000000000002cb4f72907b1ec202a2f751da0286aa9ee2e3b330000000000000000000000000000000000000000000000000000000000000304000000000000000000000000000000000000000000000000000000000000000000000000000000000000000000000000000000000000000000000000000000000000000000000000000000000000000000000000000000000000000000000003000000000000000000000000779877a7b0d9e8603169ddbd7836e478b46247890000000000000000000000000000000000000000000000000035a7b739156e5f00000000000000000000000000000000000000000000000000000000000001a000000000000000000000000000000000000000000000000000000000000001c000000000000000000000000000000000000000000000000000000000000002202f9c3fce713c49b9ccf2c7f2548561b463732c6daeb89800d2a502ef9a0b5f1f000000000000000000000000000000000000000000000000000000000000000000000000000000000000000000000000000000000000000000000000000000010000000000000000000000002bb244e0b900037c380c9c562482f177b14e575500000000000000000000000000000000000000000000000000000000000186a00000000000000000000000000000000000000000000000000000000000000001000000000000000000000000000000000000000000000000000000000000002000000000000000000000000000000000000000000000000000000000000001600000000000000000000000000000000000000000000000000000000000000020000000000000000000000000000000000000000000000000000000000000008000000000000000000000000000000000000000000000000000000000000000c000000000000000000000000000000000000000000000000000000000000001000000000000000000000000000000000000000000000000000000000000015f900000000000000000000000000000000000000000000000000000000000000020000000000000000000000000b0fa37af1d66adb5c19687ba4851357ade15a40c000000000000000000000000000000000000000000000000000000000000002000000000000000000000000039c4b59a2d3af60b7bb57b783569da7e34e1ddf100000000000000000000000000000000000000000000000000000000000000200000000000000000000000000000000000000000000000000000000ba43b7400",
          "blockHash": "0xa38d900d8430c883f0b7d02bf783a735e669aca877125acfee8a4aa323aec549",
          "blockNumber": "0x8febdc",
          "blockTimestamp": "0x68f261a0",
          "transactionHash": "0xe53851ef96a57e71732df84bf8239b199d05a1965f446c7c97b80602986ab9f9",
          "transactionIndex": "0x4a",
          "logIndex": "0x57",
          "removed": false
        }
      ],
      "logsBloom": "0x00100004000040000000000000000000000000000000000000000000000000000000000000000000000000000000000000000000000000000000000000280000000000000000000000000008000000000000000000000000000000000000000010000000020100000000000000000800000000000000100000000010000000000000000000000000000000000000800000000000000000001000000000000000020000001000080400000000010000000000400000000000000100010000000000000002000000000000000000000000000000000104000100000000000020010010800000000000000000000000000004400800000000000000000000000000",
      "type": "0x2",
      "transactionHash": "0xe53851ef96a57e71732df84bf8239b199d05a1965f446c7c97b80602986ab9f9",
      "transactionIndex": "0x4a",
      "blockHash": "0xa38d900d8430c883f0b7d02bf783a735e669aca877125acfee8a4aa323aec549",
      "blockNumber": "0x8febdc",
      "gasUsed": "0x43d3c",
      "effectiveGasPrice": "0xf424f",
      "from": "0x2cb4f72907b1ec202a2f751da0286aa9ee2e3b33",
      "to": "0x0bf3de8c5d3e8a2b34d2beeb17abfcebaf363a59",
      "contractAddress": null
    }
  ],
  "libraries": [],
  "pending": [],
  "returns": {},
  "timestamp": 1760715169,
  "chain": 11155111,
  "commit": "958705f"
}