{
  "transactions": [
    {
      "hash": "0x9645b9be1aec4547b7897e7ddbb9895818f9b234d5db6b663ba7eb1e1cbb8036",
      "transactionType": "CALL",
      "contractName": null,
      "contractAddress": "0x779877a7b0d9e8603169ddbd7836e478b4624789",
      "function": "approve(address,uint256)",
      "arguments": [
        "0x0BF3dE8c5D3e8A2B34D2BEeB17ABfCeBaf363A59",
        "15102579144224351"
      ],
      "transaction": {
        "from": "0x2cb4f72907b1ec202a2f751da0286aa9ee2e3b33",
        "to": "0x779877a7b0d9e8603169ddbd7836e478b4624789",
        "gas": "0x1081f",
        "value": "0x0",
        "input": "0x095ea7b30000000000000000000000000bf3de8c5d3e8a2b34d2beeb17abfcebaf363a590000000000000000000000000000000000000000000000000035a7b739156e5f",
        "nonce": "0xc3",
        "chainId": "0xaa36a7"
      },
      "additionalContracts": [],
      "isFixedGasLimit": false
    },
    {
      "hash": "0xbf04d92f38dc01d97a5bc68243e077b124ae1b0774d5a3068e7d983576f92239",
      "transactionType": "CALL",
      "contractName": null,
      "contractAddress": "0x4c4dee62b376cd05d60bd31d3f086d8ba9986304",
      "function": "approve(address,uint256)",
      "arguments": [
        "0x0BF3dE8c5D3e8A2B34D2BEeB17ABfCeBaf363A59",
        "100000"
      ],
      "transaction": {
        "from": "0x2cb4f72907b1ec202a2f751da0286aa9ee2e3b33",
        "to": "0x4c4dee62b376cd05d60bd31d3f086d8ba9986304",
        "gas": "0x11554",
        "value": "0x0",
        "input": "0x095ea7b30000000000000000000000000bf3de8c5d3e8a2b34d2beeb17abfcebaf363a5900000000000000000000000000000000000000000000000000000000000186a0",
        "nonce": "0xc4",
        "chainId": "0xaa36a7"
      },
      "additionalContracts": [],
      "isFixedGasLimit": false
    },
    {
      "hash": "0x70174890e8d0f46a5efdb297f3460d8635a9981d6055ba004e4a12550fbdacab",
      "transactionType": "CALL",
      "contractName": null,
      "contractAddress": "0x0bf3de8c5d3e8a2b34d2beeb17abfcebaf363a59",
      "function": "ccipSend(uint64,(bytes,bytes,(address,uint256)[],address,bytes))",
      "arguments": [
        "6898391096552792247",
        "(0x0000000000000000000000002cb4f72907b1ec202a2f751da0286aa9ee2e3b33, 0x, [(0x4C4deE62b376cD05d60BD31d3f086d8bA9986304, 100000)], 0x779877A7B0D9E8603169DdbD7836e478b4624789, 0x97a657c90000000000000000000000000000000000000000000000000000000000000000)"
      ],
      "transaction": {
        "from": "0x2cb4f72907b1ec202a2f751da0286aa9ee2e3b33",
        "to": "0x0bf3de8c5d3e8a2b34d2beeb17abfcebaf363a59",
        "gas": "0x5db0a",
        "value": "0x0",
        "input": "0x96f4e9f90000000000000000000000000000000000000000000000005fbc02272fbf20b7000000000000000000000000000000000000000000000000000000000000004000000000000000000000000000000000000000000000000000000000000000a000000000000000000000000000000000000000000000000000000000000000e00000000000000000000000000000000000000000000000000000000000000100000000000000000000000000779877a7b0d9e8603169ddbd7836e478b4624789000000000000000000000000000000000000000000000000000000000000016000000000000000000000000000000000000000000000000000000000000000200000000000000000000000002cb4f72907b1ec202a2f751da0286aa9ee2e3b33000000000000000000000000000000000000000000000000000000000000000000000000000000000000000000000000000000000000000000000000000000010000000000000000000000004c4dee62b376cd05d60bd31d3f086d8ba998630400000000000000000000000000000000000000000000000000000000000186a0000000000000000000000000000000000000000000000000000000000000002497a657c9000000000000000000000000000000000000000000000000000000000000000000000000000000000000000000000000000000000000000000000000",
        "nonce": "0xc5",
        "chainId": "0xaa36a7"
      },
      "additionalContracts": [],
      "isFixedGasLimit": false
    }
  ],
  "receipts": [
    {
      "status": "0x1",
      "cumulativeGasUsed": "0xf6800f",
      "logs": [
        {
          "address": "0x779877a7b0d9e8603169ddbd7836e478b4624789",
          "topics": [
            "0x8c5be1e5ebec7d5bd14f71427d1e84f3dd0314c0f7b2291e5b200ac8c7c3b925",
            "0x0000000000000000000000002cb4f72907b1ec202a2f751da0286aa9ee2e3b33",
            "0x0000000000000000000000000bf3de8c5d3e8a2b34d2beeb17abfcebaf363a59"
          ],
          "data": "0x0000000000000000000000000000000000000000000000000035a7b739156e5f",
          "blockHash": "0xcb3576a3e113af62f31e2d68c1acb4489d65f02c3bb3083ddc8d5bbc51fc33ef",
          "blockNumber": "0x8febbe",
          "blockTimestamp": "0x68f26038",
          "transactionHash": "0x9645b9be1aec4547b7897e7ddbb9895818f9b234d5db6b663ba7eb1e1cbb8036",
          "transactionIndex": "0x7a",
          "logIndex": "0x89",
          "removed": false
        }
      ],
      "logsBloom": "0x00100004000040000000000000000000000000000000000000000000000000000000000000000000000000000000000000000000000000000000000000280000000000000000000000000000000000000000000000000000000000000000000000000000000100000000000000000000000000000000000000000000000000000000000000000000000000000000800000000000000000000000000000000000020000001000080000000000000000000000000000000000000000000000000000000000000000000000000000000000000000000000000100000000000000000010000000000000000000000000000000000000000000000000000000000000",
      "type": "0x2",
      "transactionHash": "0x9645b9be1aec4547b7897e7ddbb9895818f9b234d5db6b663ba7eb1e1cbb8036",
      "transactionIndex": "0x7a",
      "blockHash": "0xcb3576a3e113af62f31e2d68c1acb4489d65f02c3bb3083ddc8d5bbc51fc33ef",
      "blockNumber": "0x8febbe",
      "gasUsed": "0xb499",
      "effectiveGasPrice": "0xf4249",
      "from": "0x2cb4f72907b1ec202a2f751da0286aa9ee2e3b33",
      "to": "0x779877a7b0d9e8603169ddbd7836e478b4624789",
      "contractAddress": null
    },
    {
      "status": "0x1",
      "cumulativeGasUsed": "0xf73db0",
      "logs": [
        {
          "address": "0x4c4dee62b376cd05d60bd31d3f086d8ba9986304",
          "topics": [
            "0x8c5be1e5ebec7d5bd14f71427d1e84f3dd0314c0f7b2291e5b200ac8c7c3b925",
            "0x0000000000000000000000002cb4f72907b1ec202a2f751da0286aa9ee2e3b33",
            "0x0000000000000000000000000bf3de8c5d3e8a2b34d2beeb17abfcebaf363a59"
          ],
          "data": "0x00000000000000000000000000000000000000000000000000000000000186a0",
          "blockHash": "0xcb3576a3e113af62f31e2d68c1acb4489d65f02c3bb3083ddc8d5bbc51fc33ef",
          "blockNumber": "0x8febbe",
          "blockTimestamp": "0x68f26038",
          "transactionHash": "0xbf04d92f38dc01d97a5bc68243e077b124ae1b0774d5a3068e7d983576f92239",
          "transactionIndex": "0x7b",
          "logIndex": "0x8a",
          "removed": false
        }
      ],
      "logsBloom": "0x00100000000040000000002000000000000000000040000000000000000000000000000000000000000000000000000000000000000000000000000000280000000000000000000000000000000000000000000000000000000000000000000000000000000100000000000000000000000000000000000000000000000000000000000000000000000008000000000000000000000000000000000000000000020000001000080000000000000000000000000000000000000000000000000000000000000000000000000000000000000000000000000000000000000000000010000000000000000000000000000000000000000000000000000000000000",
      "type": "0x2",
      "transactionHash": "0xbf04d92f38dc01d97a5bc68243e077b124ae1b0774d5a3068e7d983576f92239",
      "transactionIndex": "0x7b",
      "blockHash": "0xcb3576a3e113af62f31e2d68c1acb4489d65f02c3bb3083ddc8d5bbc51fc33ef",
      "blockNumber": "0x8febbe",
      "gasUsed": "0xbda1",
      "effectiveGasPrice": "0xf4249",
      "from": "0x2cb4f72907b1ec202a2f751da0286aa9ee2e3b33",
      "to": "0x4c4dee62b376cd05d60bd31d3f086d8ba9986304",
      "contractAddress": null
    },
    {
      "status": "0x1",
      "cumulativeGasUsed": "0xfb7af8",
      "logs": [
        {
          "address": "0x779877a7b0d9e8603169ddbd7836e478b4624789",
          "topics": [
            "0xddf252ad1be2c89b69c2b068fc378daa952ba7f163c4a11628f55a4df523b3ef",
            "0x0000000000000000000000002cb4f72907b1ec202a2f751da0286aa9ee2e3b33",
            "0x000000000000000000000000a2865e4f36760f5fa5c8f958336120f2df0d974b"
          ],
          "data": "0x0000000000000000000000000000000000000000000000000035a7b739156e5f",
          "blockHash": "0xcb3576a3e113af62f31e2d68c1acb4489d65f02c3bb3083ddc8d5bbc51fc33ef",
          "blockNumber": "0x8febbe",
          "blockTimestamp": "0x68f26038",
          "transactionHash": "0x70174890e8d0f46a5efdb297f3460d8635a9981d6055ba004e4a12550fbdacab",
          "transactionIndex": "0x7c",
          "logIndex": "0x8b",
          "removed": false
        },
        {
          "address": "0x779877a7b0d9e8603169ddbd7836e478b4624789",
          "topics": [
            "0x8c5be1e5ebec7d5bd14f71427d1e84f3dd0314c0f7b2291e5b200ac8c7c3b925",
            "0x0000000000000000000000002cb4f72907b1ec202a2f751da0286aa9ee2e3b33",
            "0x0000000000000000000000000bf3de8c5d3e8a2b34d2beeb17abfcebaf363a59"
          ],
          "data": "0x0000000000000000000000000000000000000000000000000000000000000000",
          "blockHash": "0xcb3576a3e113af62f31e2d68c1acb4489d65f02c3bb3083ddc8d5bbc51fc33ef",
          "blockNumber": "0x8febbe",
          "blockTimestamp": "0x68f26038",
          "transactionHash": "0x70174890e8d0f46a5efdb297f3460d8635a9981d6055ba004e4a12550fbdacab",
          "transactionIndex": "0x7c",
          "logIndex": "0x8c",
          "removed": false
        },
        {
          "address": "0x4c4dee62b376cd05d60bd31d3f086d8ba9986304",
          "topics": [
            "0xddf252ad1be2c89b69c2b068fc378daa952ba7f163c4a11628f55a4df523b3ef",
            "0x0000000000000000000000000000000000000000000000000000000000000000",
            "0x0000000000000000000000002cb4f72907b1ec202a2f751da0286aa9ee2e3b33"
          ],
          "data": "0x0000000000000000000000000000000000000000000000000000000000000000",
          "blockHash": "0xcb3576a3e113af62f31e2d68c1acb4489d65f02c3bb3083ddc8d5bbc51fc33ef",
          "blockNumber": "0x8febbe",
          "blockTimestamp": "0x68f26038",
          "transactionHash": "0x70174890e8d0f46a5efdb297f3460d8635a9981d6055ba004e4a12550fbdacab",
          "transactionIndex": "0x7c",
          "logIndex": "0x8d",
          "removed": false
        },
        {
          "address": "0x4c4dee62b376cd05d60bd31d3f086d8ba9986304",
          "topics": [
            "0xddf252ad1be2c89b69c2b068fc378daa952ba7f163c4a11628f55a4df523b3ef",
            "0x0000000000000000000000000000000000000000000000000000000000000000",
            "0x000000000000000000000000d83fbc6409a6dcaf1117c2ce76559547e039545b"
          ],
          "data": "0x0000000000000000000000000000000000000000000000000000000000000000",
          "blockHash": "0xcb3576a3e113af62f31e2d68c1acb4489d65f02c3bb3083ddc8d5bbc51fc33ef",
          "blockNumber": "0x8febbe",
          "blockTimestamp": "0x68f26038",
          "transactionHash": "0x70174890e8d0f46a5efdb297f3460d8635a9981d6055ba004e4a12550fbdacab",
          "transactionIndex": "0x7c",
          "logIndex": "0x8e",
          "removed": false
        },
        {
          "address": "0x4c4dee62b376cd05d60bd31d3f086d8ba9986304",
          "topics": [
            "0xddf252ad1be2c89b69c2b068fc378daa952ba7f163c4a11628f55a4df523b3ef",
            "0x0000000000000000000000002cb4f72907b1ec202a2f751da0286aa9ee2e3b33",
            "0x000000000000000000000000d83fbc6409a6dcaf1117c2ce76559547e039545b"
          ],
          "data": "0x00000000000000000000000000000000000000000000000000000000000186a0",
          "blockHash": "0xcb3576a3e113af62f31e2d68c1acb4489d65f02c3bb3083ddc8d5bbc51fc33ef",
          "blockNumber": "0x8febbe",
          "blockTimestamp": "0x68f26038",
          "transactionHash": "0x70174890e8d0f46a5efdb297f3460d8635a9981d6055ba004e4a12550fbdacab",
          "transactionIndex": "0x7c",
          "logIndex": "0x8f",
          "removed": false
        },
        {
          "address": "0x4c4dee62b376cd05d60bd31d3f086d8ba9986304",
          "topics": [
            "0xddf252ad1be2c89b69c2b068fc378daa952ba7f163c4a11628f55a4df523b3ef",
            "0x0000000000000000000000000000000000000000000000000000000000000000",
            "0x000000000000000000000000d83fbc6409a6dcaf1117c2ce76559547e039545b"
          ],
          "data": "0x0000000000000000000000000000000000000000000000000000000000000000",
          "blockHash": "0xcb3576a3e113af62f31e2d68c1acb4489d65f02c3bb3083ddc8d5bbc51fc33ef",
          "blockNumber": "0x8febbe",
          "blockTimestamp": "0x68f26038",
          "transactionHash": "0x70174890e8d0f46a5efdb297f3460d8635a9981d6055ba004e4a12550fbdacab",
          "transactionIndex": "0x7c",
          "logIndex": "0x90",
          "removed": false
        },
        {
          "address": "0x4c4dee62b376cd05d60bd31d3f086d8ba9986304",
          "topics": [
            "0xddf252ad1be2c89b69c2b068fc378daa952ba7f163c4a11628f55a4df523b3ef",
            "0x000000000000000000000000d83fbc6409a6dcaf1117c2ce76559547e039545b",
            "0x0000000000000000000000000000000000000000000000000000000000000000"
          ],
          "data": "0x00000000000000000000000000000000000000000000000000000000000186a0",
          "blockHash": "0xcb3576a3e113af62f31e2d68c1acb4489d65f02c3bb3083ddc8d5bbc51fc33ef",
          "blockNumber": "0x8febbe",
          "blockTimestamp": "0x68f26038",
          "transactionHash": "0x70174890e8d0f46a5efdb297f3460d8635a9981d6055ba004e4a12550fbdacab",
          "transactionIndex": "0x7c",
          "logIndex": "0x91",
          "removed": false
        },
        {
          "address": "0xa2865e4f36760f5fa5c8f958336120f2df0d974b",
          "topics": [
            "0xd0c3c799bf9e2639de44391e7f524d229b2b55f5b1ea94b2bf7da42f7243dddd"
          ],
          "data": "0x0000000000000000000000000000000000000000000000000000000000000020000000000000000000000000000000000000000000000000de41ba4fc9d91ad90000000000000000000000002cb4f72907b1ec202a2f751da0286aa9ee2e3b330000000000000000000000002cb4f72907b1ec202a2f751da0286aa9ee2e3b330000000000000000000000000000000000000000000000000000000000000303000000000000000000000000000000000000000000000000000000000000000000000000000000000000000000000000000000000000000000000000000000000000000000000000000000000000000000000000000000000000000000000002000000000000000000000000779877a7b0d9e8603169ddbd7836e478b46247890000000000000000000000000000000000000000000000000035a7b739156e5f00000000000000000000000000000000000000000000000000000000000001a000000000000000000000000000000000000000000000000000000000000001c00000000000000000000000000000000000000000000000000000000000000220bb292e8db41f7912a5d85039f0244fa9906d5df04b069377247399dd0ff17dac000000000000000000000000000000000000000000000000000000000000000000000000000000000000000000000000000000000000000000000000000000010000000000000000000000004c4dee62b376cd05d60bd31d3f086d8ba998630400000000000000000000000000000000000000000000000000000000000186a00000000000000000000000000000000000000000000000000000000000000001000000000000000000000000000000000000000000000000000000000000002000000000000000000000000000000000000000000000000000000000000001600000000000000000000000000000000000000000000000000000000000000020000000000000000000000000000000000000000000000000000000000000008000000000000000000000000000000000000000000000000000000000000000c000000000000000000000000000000000000000000000000000000000000001000000000000000000000000000000000000000000000000000000000000015f900000000000000000000000000000000000000000000000000000000000000020000000000000000000000000d83fbc6409a6dcaf1117c2ce76559547e039545b00000000000000000000000000000000000000000000000000000000000000200000000000000000000000004476ababb36106b26829abb306814820ebc6678b00000000000000000000000000000000000000000000000000000000000000200000000000000000000000000000000000000000000000000000000ba43b7400",
          "blockHash": "0xcb3576a3e113af62f31e2d68c1acb4489d65f02c3bb3083ddc8d5bbc51fc33ef",
          "blockNumber": "0x8febbe",
          "blockTimestamp": "0x68f26038",
          "transactionHash": "0x70174890e8d0f46a5efdb297f3460d8635a9981d6055ba004e4a12550fbdacab",
          "transactionIndex": "0x7c",
          "logIndex": "0x92",
          "removed": false
        }
      ],
      "logsBloom": "0x00100004000040000000002000000000000000000040000000000000000000000000000000000000000000000000000000000000000000000000000000280000000000000000000000000008000000000000000000000000000000000000000010000000020100000000000000000800000000000000100000000010010000000000000000000000000008000000800000000000000000000000000000000000020000001000080400000000000000000000000000020000000100010000000000000002000000000000000000000000000000000100000100000000000020000110800000000000000000000000000004000800000000000000000000000000",
      "type": "0x2",
      "transactionHash": "0x70174890e8d0f46a5efdb297f3460d8635a9981d6055ba004e4a12550fbdacab",
      "transactionIndex": "0x7c",
      "blockHash": "0xcb3576a3e113af62f31e2d68c1acb4489d65f02c3bb3083ddc8d5bbc51fc33ef",
      "blockNumber": "0x8febbe",
      "gasUsed": "0x43d48",
      "effectiveGasPrice": "0xf4249",
      "from": "0x2cb4f72907b1ec202a2f751da0286aa9ee2e3b33",
      "to": "0x0bf3de8c5d3e8a2b34d2beeb17abfcebaf363a59",
      "contractAddress": null
    }
  ],
  "libraries": [],
  "pending": [],
  "returns": {},
  "timestamp": 1760714810,
  "chain": 11155111,
  "commit": "958705f"
}